:1000000066C08AC089C088C087C07EC185C084C0E0
:1000100083C082C081C080C07FC07EC07DC0080018
:100020000000BE922449123EABAAAA2ABECDCCCC77
:100030004C3E00000080BEABAAAAAA3E0000000011
:10004000BF000000803F0000000000084178D3BBE3
:100050004387D1133D190E3CC3BD4282AD2B3E6890
:10006000EC8276BED98FE1A93E4C80EFFFBE01C481
:10007000FF7F3F000000000007634236B79BD8A710
:100080001A39685618AEBAAB558C1D3CB7CC5763BD
:10009000BD6DEDFD753EF6177231BF000000803F6B
:1000A00000000000370000000000380002020202D9
:1000B00002020202020201020408102020041008B9
:1000C0000102000004000000000023047B0411244E
:1000D0001FBECFE5D2E0DEBFCDBF20E0A6E6B0E098
:1000E00001C01D92AE38B207E1F710E0A0E6B0E023
:1000F000E2EBF2E102C005900D92A636B107D9F706
:1001000010E0C6E6D0E003C02197FE019BD7C536BC
:10011000D107D1F743D1C1C873CF90E0FC01E054BF
:10012000FF4F2491FC01EA54FF4F3491FC01E45548
:10013000FF4FE491EE23B1F0222329F02230F9F0B1
:1001400090F42130C1F0F0E0EE0FFF1FEA55FF4FB1
:10015000A591B4918FB7F8949C91E32FE095E92392
:10016000EC938FBF0895233011F0243061F78CB5E4
:100170008F7D8CBDE8CF8AB58F778ABDE4CF8AB5F5
:100180008F7DFBCF4F925F926F927F928F929F9263
:10019000AF92BF92CF92DF92EF92FF921F93CF93D5
:1001A000DF93EC016A017B012701662477248D2C03
:1001B0009E2CAF2CBB24182D20917C00222379F09B
:1001C00030E0C901B2012DD7492E882D90E0B90148
:1001D00028D7192F8C2D90E0B90123D7492FA09152
:1001E000820020917D0030917E0080917F00A813D5
:1001F00028C0CE0163E070E014D7820F931FA09156
:100200007F00A80FB92FB11D4C92E0918000E80F3C
:10021000F92FF11D108320918100820F911DFC01A7
:100220004083DF91CF911F91FF90EF90DF90CF90AF
:10023000BF90AF909F908F907F906F905F904F9006
:100240000895CE01880F991F880F991F820F931F61
:10025000A80FB92FB11D1C92D2CFCF93DF9390E09E
:10026000FC01EA54FF4F249184559F4FFC01849177
:100270008823D1F090E0880F991FFC01E056FF4FD2
:10028000A591B491FC01EA55FF4FC591D49161113C
:100290000EC09FB7F8948C91E22FE0958E238C933B
:1002A0002881E223E8839FBFDF91CF9108958FB724
:1002B000F894EC91E22BEC938FBFF6CF3FB7F89414
:1002C00080916B0090916C00A0916D00B0916E00D8
:1002D00022B708B601FE05C02F3F19F00196A11DF7
:1002E000B11D3FBFBA2FA92F982F8827BC01CD0180
:1002F000620F711D811D911D43E0660F771F881FDE
:10030000991F4A95D1F708951F920F920FB60F9239
:1003100011242F933F938F939F93AF93BF9380911B
:10032000670090916800A0916900B0916A003091D7
:10033000660026E0230F2D3758F50296A11DB11D4A
:10034000209366008093670090936800A0936900F3
:10035000B0936A0080916B0090916C00A0916D0049
:10036000B0916E000196A11DB11D80936B0090931A
:100370006C00A0936D00B0936E00BF91AF919F9100
:100380008F913F912F910F900FBE0F901F90189556
:1003900029E8230F0396A11DB11DD2CFCF93DF9380
:1003A00000D000D000D01F92CDB7DEB778948AB5C8
:1003B00082608ABD8AB581608ABD83B7826083BF4F
:1003C00083B7816083BF89B7826089BF80B782604D
:1003D00080BF80B7816080BF329A319A3098379A57
:1003E0008CB580648CBD80917A0090917B0097FDE4
:1003F00005C061E032DF80917A008FDE81E080937A
:10040000750060E083E029DF10E000E08091730078
:100410004091710050E070E060E0762F652F542F1E
:100420004427682B80916F00482B80917600909133
:1004300077000817190710F4C801A4DE0F5F1F4FDB
:100440000031110519F720E0222E20E0322E09E1BB
:1004500010E023E027B9369A3699FECF84B165B112
:10046000762F682F072E000C880B990B56D320E0AF
:1004700030EC4FE754E4B6D26B017C0120E030E56C
:1004800043EC57E443D44B015C01A701960160E0C3
:1004900070E080E89FE33DD29B01AC01C501B4014F
:1004A000A1D220E030E543EC57E49CD2EFD36B01BE
:1004B0007C0120E030E040E450E493D44B015C0147
:1004C000A7019601C701B60121D42EEE37E844E614
:1004D00056E31CD42B013C0120EB3EEF40E859E3EE
:1004E000C701B60113D42DE03FEC4BE55BE312D21C
:1004F0009B01AC01C301B2010DD26B017C0122EF63
:1005000039E14EED53E3C501B40100D49B01AC01C8
:10051000C701B601FFD19B01AC0160E070E080E84B
:100520009FE360D223E333E948E853E4F2D16B015F
:100530007C0110927400109273001092720010925D
:10054000710020E030E048EC51E448D287FD05C05E
:100550001092700010926F000EC0A701960160E02B
:1005600070E088EC91E4D5D1A5D277FDF1CF7093FE
:10057000700060936F0020E030E040EA51E4C70172
:10058000B6012CD287FF11C020E030E040E251E4F8
:10059000C701B601BED120E030E040E250E4B6D35E
:1005A00089D2709372006093710020E030E040EADD
:1005B00051E4C701B60161D31816C4F420E030E05D
:1005C00040EA51E4C701B601A4D120E030E040E2A6
:1005D00050E49CD39B01AC0160E070E080E292E4C7
:1005E00098D168D27093720060937100809171000D
:1005F0009091720097FF04C01092720010927100E7
:1006000020E030E040E751E4C701B60136D31816C8
:1006100064F420E030E040E751E4C701B60179D14D
:1006200049D270937400609373008091730090912D
:1006300074004A9724F01093740000937300809123
:100640006F00909170004A9724F01093700000930F
:100650006F0080917300909174004A9724F010937A
:10066000740000937300F12CE12C8091760090913E
:100670007700E816F90688F48091730040917100C4
:1006800050E070E060E0762F652F542F4427682BF0
:1006900080916F00482BC70175DD80917D0090919E
:1006A0007E00892B09F49FC0809083009090840085
:1006B000A0908500B090860001DE681579058A0556
:1006C0009B0548F4FBDD6093830070938400809366
:1006D000850090938600F2DD8090830090908400E6
:1006E000A0908500B0908600681979098A099B0955
:1006F0006C32714081059105B8F2F89480917800D0
:10070000909179009A838983A0917D00B0917E00B9
:10071000FD0131968C918F831B8298B38091890063
:10072000982B9E8398B3809589238D838D818C83AC
:100730008F8187FF02C08E818C835E816D814F81A6
:100740003C812B8189819A8158BB262F38BB00C000
:1007500046FD252F68BB00C058BB362F28BB00C004
:1007600045FD352F68BB00C058BB262F38BB00C0E5
:1007700044FD252F68BB00C058BB362F28BB00C0E6
:1007800043FD352F68BB00C058BB262F38BB00C0C7
:1007900042FD252F68BB00C058BB362F28BB00C0C8
:1007A00041FD352F68BB00C058BB262F38BB00C0A9
:1007B00040FD252F68BB019758BB362F28BB4191C0
:1007C00047FD352F68BB01F64F833C832B839A830B
:1007D0008983789473DD60938300709384008093A1
:1007E0008500909386008FEFE81AF80A24E0E2165D
:1007F000F10409F03ACF62DD4B015C0184E6C82EBA
:10080000D12CE12CF12C5ADD681979098A099B0950
:10081000683E734081059105B0F381E0C81AD108A4
:10082000E108F10828EE820E23E0921EA11CB11C03
:10083000C114D104E104F10431F72114310409F4A5
:1008400008CEDEDB06CE1092750010927C0010926E
:10085000830010928400109285001092860081E03F
:100860008093820080937F001092800082E08093CA
:10087000810080E390E09093790080937800E8D342
:1008800090937E0080937D00009761F120E3FC014E
:1008900011922A95E9F780E190E090937700809398
:1008A000760010927B0010927A0080917500882368
:1008B00029F061E080E0D1DC80E02FDCECEAF0E0C0
:1008C000E491F0E0EE0FFF1FEA55FF4F8591949100
:1008D0009093880080938700E6EBF0E0E491E0934A
:1008E0008900089510927900109278001092770094
:1008F00010927600D6CF80917D0090917E0044D4F6
:1009000080917A0090917B0097FD02C060E0A5CCB9
:1009100008955058BB27AA270ED075C166D130F074
:100920006BD120F031F49F3F11F41EF45BC10EF443
:10093000E095E7FB51C1E92F77D180F3BA17620741
:1009400073078407950718F071F49EF58FC10EF4B4
:10095000E0950B2EBA2FA02D0B01B90190010C01CF
:10096000CA01A0011124FF27591B99F0593F50F4E7
:10097000503E68F11A16F040A22F232F342F44273F
:10098000585FF3CF469537952795A795F040539537
:10099000C9F77EF41F16BA0B620B730B840BBAF007
:1009A0009150A1F0FF0FBB1F661F771F881FC2F772
:1009B0000EC0BA0F621F731F841F48F48795779586
:1009C0006795B795F7959E3F08F0B3CF9395880F3D
:1009D00008F09927EE0F979587950895D9D008F4D8
:1009E00081E008950CD00FC107D140F0FED030F067
:1009F00021F45F3F19F0F0C0511139C1F3C014D197
:100A000098F39923C9F35523B1F3951B550BBB27D5
:100A1000AA2762177307840738F09F5F5F4F220F82
:100A2000331F441FAA1FA9F333D00E2E3AF0E0E87B
:100A300030D091505040E695001CCAF729D0FE2FC7
:100A400027D0660F771F881FBB1F26173707480759
:100A5000AB07B0E809F0BB0B802DBF01FF2793580F
:100A60005F4F2AF09E3F510568F0B6C000C15F3F5E
:100A7000ECF3983EDCF3869577956795B795F795F7
:100A80009F5FC9F7880F911D9695879597F90895EF
:100A9000E1E0660F771F881FBB1F6217730784078B
:100AA000BA0720F0621B730B840BBA0BEE1F88F79A
:100AB000E095089504D06894B111D9C00895BCD0D0
:100AC00088F09F5790F0B92F9927B751A0F0D1F037
:100AD000660F771F881F991F1AF0BA95C9F712C0C1
:100AE000B13081F0C3D0B1E00895C0C0672F782F36
:100AF0008827B85F39F0B93FCCF38695779567952D
:100B0000B395D9F73EF490958095709561957F4F98
:100B10008F4F9F4F0895E89409C097FB3EF490953E
:100B20008095709561957F4F8F4F9F4F9923A9F0C6
:100B3000F92F96E9BB279395F69587957795679555
:100B4000B795F111F8CFFAF4BB0F11F460FF1BC099
:100B50006F5F7F4F8F4F9F4F16C0882311F096E92C
:100B600011C0772321F09EE8872F762F05C06623DA
:100B700071F096E8862F70E060E02AF09A95660F93
:100B8000771F881FDAF7880F9695879597F908954C
:100B9000990F0008550FAA0BE0E8FEEF161617068E
:100BA000E807F907C0F012161306E407F50798F0F6
:100BB000621B730B840B950B39F40A2661F0232B0F
:100BC000242B252B21F408950A2609F4A140A6958B
:100BD0008FEF811D811D089597F99F6780E870E070
:100BE00060E008959FEF80EC089500240A941616A3
:100BF000170618060906089500240A94121613060B
:100C0000140605060895092E0394000C11F4882398
:100C100052F0BB0F40F4BF2B11F460FF04C06F5FB4
:100C20007F4F8F4F9F4F089557FD9058440F551F8A
:100C300059F05F3F71F04795880F97FB991F61F05E
:100C40009F3F79F087950895121613061406551FD5
:100C5000F2CF4695F1DF08C0161617061806991F41
:100C6000F1CF86957105610508940895E894BB2736
:100C700066277727CB0197F908958ADF08F48FEF6D
:100C800008950EF02BC1AECF6894A6CFD5DFC8F380
:100C90009923D1F3C6F3DF93CF931F930F93FF9262
:100CA000C92FDD2788232AF02197660F771F881F19
:100CB000DAF720E030E040E85FEB9FE3883920F08E
:100CC000803E30F021968F7725DEEEE1F0E003C024
:100CD00021DEEBE4F0E010D18B01BE01EC01FB2E34
:100CE0006F5771097595771F880B990B16DF28E1EF
:100CF00032E741E35FE315D0AF2D9801AE01FF90DD
:100D00000F911F91CF91DF9116DE7DCF0AD07BCF5F
:100D10006CDF28F071DF18F0952309F05DCF62CF0A
:100D2000A6CF82DFA8F39923D9F35523C9F3950FF2
:100D300050E0551FAA27EE27FF27BB270024089461
:100D4000679520F4E20FF31FB41F0A1E220F331F12
:100D5000441FAA1F6695A9F7779530F4F30FB41FC7
:100D60000A1E121E08F46395330F441FAA1F221F88
:100D7000769599F7879520F4B40F0A1E121E631F0B
:100D8000440FAA1F221F331F8695A9F7862F712DA6
:100D9000602D11249F5750408AF0E1F088234AF0DB
:100DA000EE0FFF1FBB1F661F771F881F915050401B
:100DB000A9F79E3F510570F00FCF59CF5F3FECF37D
:100DC000983EDCF3869577956795B795F795E79507
:100DD0009F5FC1F7FE2B880F911D9695879597F918
:100DE0000895FA01EE0FFF1F30962105310599F1A4
:100DF0006115710561F48038BFE39B0749F1689480
:100E00009038810561F08038BFEF9B0741F099234E
:100E100042F5FF3FE1053105210511F1E894089401
:100E2000E795D901AA2329F4AB2FBE2FF85FD0F3A1
:100E300010C0FF5F70F4A695E0F7F73950F019F095
:100E4000FF3A38F49F779F930CD00F9007FC90588F
:100E500008953EF0C7CE60E070E080E89FE308951B
:100E60004FE79F775F934F933F932F930FDF2F9120
:100E70003F914F915F914ADF05C019F40EF0ACCE5F
:100E8000F5CEB0CED9DEC8F39638C0F707F80F928A
:100E9000E8942BE33AEA48EB5FE745DF0F920F92C5
:100EA0000F924DB75EB70F9289D0E8E7F0E024D0FB
:100EB0004F915F91EF91FF91E595EE1FFF1F49F074
:100EC000FE57E0684427EE0F441FFA95E1F741957D
:100ED000550B40D00F9007FE34C008959F3F31F06E
:100EE000915020F4879577956795B795880F911D58
:100EF0009695879597F90895DF93CF931F930F9356
:100F0000FF92EF92DF927B018C01689405C0DA2E8C
:100F1000EF0107DFFE01E894A591259135914591F8
:100F20005591AEF3EF0107DDFE019701A801DA94B8
:100F300079F7DF90EF90FF900F911F91CF91DF91A4
:100F400008959B01AC0160E070E080E89FE34ACD2A
:100F500043CEC4CF71DEE8F39923D9F3940F511D2A
:100F6000BBF39150504094F059F0882332F0660F53
:100F7000771F881F91505040C1F79E3F510544F79D
:100F8000880F911D9695879597F908955F3FACF06E
:100F9000983E9CF0BB27869577956795B79508F4A2
:100FA000B1609395C1F7BB0F58F711F460FFE8CF1C
:100FB0006F5F7F4F8F4F9F4FE3CF59CEFA01DC0118
:100FC000AA0FBB1F9B01AC01BF5728F42227332770
:100FD000442750781FC0B75188F4AB2F00244695A2
:100FE00037952795011CA395D2F3002069F0220FB5
:100FF000331F441FB395DAF30DD08BCC61307105EC
:10100000A0E88A07B94630F49B01AC016627772730
:1010100088279078309621F0208331834283538350
:1010200008950024552704C0080E591F880F991FE2
:10103000009729F076956795B8F37105B9F7802D7B
:10104000952F0895EE0FFF1F0590F491E02D099460
:101050000F931F93CF93DF938230910510F482E0BA
:1010600090E0E0918C00F0918D0030E020E0B0E065
:10107000A0E0309799F42115310509F44AC0281BE6
:10108000390B24303105D8F58A819B8161157105B2
:1010900089F1FB0193838283FE0111C0408151815C
:1010A0000281138148175907E0F04817590799F44E
:1010B000109761F012960C93129713961C93329628
:1010C000CF01DF91CF911F910F91089500938C0074
:1010D00010938D00F4CF2115310551F042175307BD
:1010E00038F0A901DB019A01BD01DF01F801C1CF90
:1010F000EF01F9CF90938D0080938C00CDCFFE014E
:10110000E20FF31F81939193225031093983288391
:10111000D7CF20918A0030918B00232B41F420916E
:1011200062003091630030938B0020938A002091FD
:101130006000309161002115310541F42DB73EB7B3
:101140004091640050916500241B350BE0918A00AA
:10115000F0918B00E217F307A0F42E1B3F0B28172A
:10116000390778F0AC014E5F5F4F2417350748F020
:101170004E0F5F1F50938B0040938A008193919391
:101180009FCFF0E0E0E09CCFCF93DF930097E9F0B2
:10119000FC01329713821282A0918C00B0918D00D5
:1011A000ED0130E020E01097A1F420813181820F21
:1011B000931F20918A0030918B002817390709F07E
:1011C00061C0F0938B00E0938A00DF91CF91089586
:1011D000EA01CE17DF07E8F54A815B819E014115E0
:1011E0005105B1F7E901FB83EA8349915991C40F95
:1011F000D51FEC17FD0761F4808191810296840F61
:10120000951FE90199838883828193819B838A83D7
:10121000F0E0E0E012968D919C9113970097B9F55C
:101220002D913C911197CD010296820F931F209131
:101230008A0030918B002817390739F6309751F51D
:1012400010928D0010928C00B0938B00A0938A00B6
:10125000BCCFD383C28340815181840F951FC817AF
:10126000D90761F44E5F5F4F88819981480F591FFC
:10127000518340838A819B81938382832115310529
:1012800009F0B0CFF0938D00E0938C009ECFFD016C
:10129000DC01C0CF13821282D7CF10E0C6E6D0E0C7
:1012A00003C0FE01CFDE2196C736D107D1F7F894EF
:0212B000FFCF6E
:0612B20000008E00800028
:00000001FF
